{
  "transactions": [
    {
      "hash": "0x1d1b6b18a45477ea1835e2112bdcac21649e961368bfe350901b3a7829eb1a08",
      "transactionType": "CREATE",
      "contractName": "DevOpsTools",
      "contractAddress": "0x277A15B785Ef4480b4bA1D2BE18BBC1e21e7eae7",
      "function": null,
      "arguments": null,
      "transaction": {
        "type": "0x02",
        "from": "0x7b3594aa123cfdfe16fb2d9122d86e34e76b8749",
        "gas": "0x19433b",
        "data": "0x61161461003a600b82828239805160001a60731461002d57634e487b7160e01b600052600060045260246000fd5b30600052607381538281f3fe73000000000000000000000000000000000000000030146080604052600436106100565760003560e01c80632aa1c6961461005b5780633a7684631461009b5780633d363fe3146100ce578063e374cdf1146100e1575b600080fd5b6100856040518060400160405280600b81526020016a0b8bd89c9bd85918d85cdd60aa1b81525081565b60405161009291906109c5565b60405180910390f35b6100b6737109709ecfa91a80626ff3989d68f67f5b1dd12d81565b6040516001600160a01b039091168152602001610092565b6100b66100dc366004610b4d565b6100f4565b6100b66100ef366004610bb9565b6104a7565b604051630525e1db60e21b81526000908190819081908190737109709ecfa91a80626ff3989d68f67f5b1dd12d90631497876c90610139908990600390600401610bfd565b600060405180830381865afa158015610156573d6000803e3d6000fd5b505050506040513d6000823e601f3d908101601f1916820160405261017e9190810190610cad565b905060005b81518110156103d95760008282815181106101a0576101a0610df7565b602090810291909101015160405163348051d760e11b8152600481018b905290915061023590737109709ecfa91a80626ff3989d68f67f5b1dd12d90636900a3ae90602401600060405180830381865afa158015610202573d6000803e3d6000fd5b505050506040513d6000823e601f3d908101601f1916820160405261022a9190810190610e0d565b6020830151906104e0565b801561027a575061027a6040518060400160405280600f81526020016e393ab716b630ba32b9ba173539b7b760891b81525082602001516104e090919063ffffffff16565b156103d05760208101516040516360f9bb1160e01b815260019550600091737109709ecfa91a80626ff3989d68f67f5b1dd12d916360f9bb11916102c0916004016109c5565b600060405180830381865afa1580156102dd573d6000803e3d6000fd5b505050506040513d6000823e601f3d908101601f191682016040526103059190810190610e0d565b6040516356eef15b60e11b8152909150600090737109709ecfa91a80626ff3989d68f67f5b1dd12d9063addde2b690610342908590600401610e41565b602060405180830381865afa15801561035f573d6000803e3d6000fd5b505050506040513d601f19601f820116820180604052508101906103839190610e80565b9050868111156103cd576103bf6040518060400160405280600c81526020016b0283937b1b2b9b9b4b7339d160a51b81525084602001516105bf565b6103ca828d8a610608565b97505b50505b50600101610183565b50816104465760405162461bcd60e51b815260206004820152603160248201527f4e6f2072756e2d6c61746573742e6a736f6e2066696c6520666f756e6420666f604482015270391039b832b1b4b334b2b21031b430b4b760791b60648201526084015b60405180910390fd5b6001600160a01b0384161561046157839450505050506104a0565b60405162461bcd60e51b8152602060048201526014602482015273139bc818dbdb9d1c9858dd0819195c1b1bde595960621b604482015260640161043d565b9392505050565b60006104d783836040518060400160405280600b81526020016a0b8bd89c9bd85918d85cdd60aa1b8152506100f4565b90505b92915050565b805182516000918491849111806104f657508151155b15610506576000925050506104da565b60005b815183516105179190610eaf565b81116105b357600160005b835181101561058c5783818151811061053d5761053d610df7565b01602001516001600160f81b031916856105578386610ec2565b8151811061056757610567610df7565b01602001516001600160f81b03191614610584576000915061058c565b600101610522565b5080156105a05760019450505050506104da565b50806105ab81610ed5565b915050610509565b50600095945050505050565b61060482826040516024016105d5929190610eee565b60408051601f198184030181529190526020810180516001600160e01b0316634b5c427760e01b179052610835565b5050565b6000806106446040518060400160405280600e81526020016d242e7472616e73616374696f6e7360901b8152508661085690919063ffffffff16565b6040516314a29a0f60e21b8152909150737109709ecfa91a80626ff3989d68f67f5b1dd12d9063528a683c9061067e908890600401610f1c565b602060405180830381865afa15801561069b573d6000803e3d6000fd5b505050506040513d601f19601f820116820180604052508101906106bf9190610f66565b1561077a576000818060200190518101906106da91906111f5565b905061071c6040518060400160405280601a81526020017f496e7370656374696e67202573207472616e73616374696f6e7300000000000081525082516108d7565b60005b815181101561077357600082828151811061073c5761073c610df7565b6020026020010151905061075d87826060015161091c90919063ffffffff16565b1561076a57806040015195505b5060010161071f565b505061082c565b60008180602001905181019061079091906113de565b90506107d26040518060400160405280601a81526020017f496e7370656374696e67202573207472616e73616374696f6e7300000000000081525082516108d7565b60005b81518110156108295760008282815181106107f2576107f2610df7565b6020026020010151905061081387826060015161091c90919063ffffffff16565b1561082057806040015195505b506001016107d5565b50505b50909392505050565b80516a636f6e736f6c652e6c6f67602083016000808483855afa5050505050565b6040516385940ef160e01b8152606090737109709ecfa91a80626ff3989d68f67f5b1dd12d906385940ef1906108929086908690600401610eee565b600060405180830381865afa1580156108af573d6000803e3d6000fd5b505050506040513d6000823e601f3d908101601f191682016040526104d79190810190610e0d565b61060482826040516024016108ed9291906115a0565b60408051601f198184030181529190526020810180516001600160e01b03166309710a9d60e41b179052610835565b60008160405160200161092f91906115c2565b604051602081830303815290604052805190602001208360405160200161095691906115c2565b6040516020818303038152906040528051906020012014905092915050565b60005b83811015610990578181015183820152602001610978565b50506000910152565b600081518084526109b1816020860160208601610975565b601f01601f19169290920160200192915050565b6020815260006104d76020830184610999565b634e487b7160e01b600052604160045260246000fd5b60405160a081016001600160401b0381118282101715610a1057610a106109d8565b60405290565b604080519081016001600160401b0381118282101715610a1057610a106109d8565b60405160e081016001600160401b0381118282101715610a1057610a106109d8565b60405161014081016001600160401b0381118282101715610a1057610a106109d8565b60405161012081016001600160401b0381118282101715610a1057610a106109d8565b604051601f8201601f191681016001600160401b0381118282101715610ac857610ac86109d8565b604052919050565b60006001600160401b03821115610ae957610ae96109d8565b50601f01601f191660200190565b600082601f830112610b0857600080fd5b8135610b1b610b1682610ad0565b610aa0565b818152846020838601011115610b3057600080fd5b816020850160208301376000918101602001919091529392505050565b600080600060608486031215610b6257600080fd5b83356001600160401b0380821115610b7957600080fd5b610b8587838801610af7565b9450602086013593506040860135915080821115610ba257600080fd5b50610baf86828701610af7565b9150509250925092565b60008060408385031215610bcc57600080fd5b82356001600160401b03811115610be257600080fd5b610bee85828601610af7565b95602094909401359450505050565b604081526000610c106040830185610999565b90506001600160401b03831660208301529392505050565b60006001600160401b03821115610c4157610c416109d8565b5060051b60200190565b600082601f830112610c5c57600080fd5b8151610c6a610b1682610ad0565b818152846020838601011115610c7f57600080fd5b610c90826020830160208701610975565b949350505050565b80518015158114610ca857600080fd5b919050565b60006020808385031215610cc057600080fd5b82516001600160401b0380821115610cd757600080fd5b818501915085601f830112610ceb57600080fd5b8151610cf9610b1682610c28565b81815260059190911b83018401908481019088831115610d1857600080fd5b8585015b83811015610dea57805185811115610d345760008081fd5b860160a0818c03601f1901811315610d4c5760008081fd5b610d546109ee565b8983015188811115610d665760008081fd5b610d748e8c83870101610c4b565b82525060408084015189811115610d8b5760008081fd5b610d998f8d83880101610c4b565b8c840152506060808501518a81168114610db35760008081fd5b80838501525060809150610dc8828601610c98565b90830152610dd7848401610c98565b9082015285525050918601918601610d1c565b5098975050505050505050565b634e487b7160e01b600052603260045260246000fd5b600060208284031215610e1f57600080fd5b81516001600160401b03811115610e3557600080fd5b610c9084828501610c4b565b604081526000610e546040830184610999565b8281036020840152600a81526902e74696d657374616d760b41b60208201526040810191505092915050565b600060208284031215610e9257600080fd5b5051919050565b634e487b7160e01b600052601160045260246000fd5b818103818111156104da576104da610e99565b808201808211156104da576104da610e99565b600060018201610ee757610ee7610e99565b5060010190565b604081526000610f016040830185610999565b8281036020840152610f138185610999565b95945050505050565b604081526000610f2f6040830184610999565b82810360208401526015815274242e7472616e73616374696f6e735b305d2e72706360581b60208201526040810191505092915050565b600060208284031215610f7857600080fd5b6104d782610c98565b600082601f830112610f9257600080fd5b81516020610fa2610b1683610c28565b82815260059290921b84018101918181019086841115610fc157600080fd5b8286015b848110156110005780516001600160401b03811115610fe45760008081fd5b610ff28986838b0101610c4b565b845250918301918301610fc5565b509695505050505050565b80516001600160a01b0381168114610ca857600080fd5b600082601f83011261103357600080fd5b81516020611043610b1683610c28565b828152600592831b850182019282820191908785111561106257600080fd5b8387015b858110156111415780516001600160401b03808211156110865760008081fd5b908901906040828c03601f19018113156110a05760008081fd5b6110a8610a16565b6110b389850161100b565b815281840151838111156110c75760008081fd5b8085019450508c603f8501126110df57600092508283fd5b8884015192506110f1610b1684610c28565b83815292861b8401820192898101908e85111561110e5760008081fd5b948301945b8486101561112c5785518252948a0194908a0190611113565b828b0152508752505050928401928401611066565b5090979650505050505050565b600060e0828403121561116057600080fd5b611168610a38565b905081516001600160401b038082111561118157600080fd5b61118d85838601611022565b835260208401519150808211156111a357600080fd5b506111b084828501610c4b565b6020830152506111c26040830161100b565b6040820152606082015160608201526080820151608082015260a082015160a082015260c082015160c082015292915050565b6000602080838503121561120857600080fd5b82516001600160401b038082111561121f57600080fd5b818501915085601f83011261123357600080fd5b8151611241610b1682610c28565b81815260059190911b8301840190848101908883111561126057600080fd5b8585015b83811015610dea5780518581111561127b57600080fd5b8601610140818c03601f1901121561129257600080fd5b61129a610a5a565b88820151878111156112ab57600080fd5b6112b98d8b83860101610f81565b8252506040820151878111156112ce57600080fd5b6112dc8d8b83860101610c4b565b8a830152506112ed6060830161100b565b604082015260808201518781111561130457600080fd5b6113128d8b83860101610c4b565b60608301525060a08201518781111561132a57600080fd5b6113388d8b83860101610c4b565b60808301525060c082015160a082015261135460e08301610c98565b60c0820152610100808301518881111561136d57600080fd5b61137b8e8c83870101610c4b565b60e084015250610120808401518981111561139557600080fd5b6113a38f8d8388010161114e565b83850152506101408401519150888211156113bd57600080fd5b6113cb8e8c84870101610c4b565b9083015250845250918601918601611264565b600060208083850312156113f157600080fd5b82516001600160401b038082111561140857600080fd5b818501915085601f83011261141c57600080fd5b815161142a610b1682610c28565b81815260059190911b8301840190848101908883111561144957600080fd5b8585015b83811015610dea5780518581111561146457600080fd5b8601610120818c03601f190181131561147c57600080fd5b611484610a7d565b898301518881111561149557600080fd5b6114a38e8c83870101610f81565b8252506040830151888111156114b857600080fd5b6114c68e8c83870101610c4b565b8b830152506114d76060840161100b565b60408201526080830151888111156114ee57600080fd5b6114fc8e8c83870101610c4b565b60608301525060a08301518881111561151457600080fd5b6115228e8c83870101610c4b565b60808301525060c083015160a082015261153e60e08401610c98565b60c082015261010080840151898111156115585760008081fd5b6115668f8d8388010161114e565b60e08401525091830151918883111561157f5760008081fd5b61158d8e8c85870101610c4b565b908201528552505091860191860161144d565b6040815260006115b36040830185610999565b90508260208301529392505050565b600082516115d4818460208701610975565b919091019291505056fea2646970667358221220984d2965f4e7650815312edfbdd109b11d31689800e997ec5ade05ed5c004f4064736f6c63430008170033",
        "nonce": "0x61",
        "accessList": []
      },
      "additionalContracts": [],
      "isFixedGasLimit": false
    },
    {
      "hash": "0xe1c22093ea174c331a93a0c61484f12a673439893c230df80f62e33370a3afcd",
      "transactionType": "CALL",
      "contractName": "VRFCoordinatorV2",
      "contractAddress": "0x7a1BaC17Ccc5b313516C5E16fb24f7659aA5ebed",
      "function": "createSubscription()",
      "arguments": [],
      "transaction": {
        "type": "0x02",
        "from": "0x7b3594aa123cfdfe16fb2d9122d86e34e76b8749",
        "to": "0x7a1bac17ccc5b313516c5e16fb24f7659aa5ebed",
        "gas": "0x1558c",
        "value": "0x0",
        "data": "0xa21a23e4",
        "nonce": "0x62",
        "accessList": []
      },
      "additionalContracts": [],
      "isFixedGasLimit": false
    },
    {
      "hash": "0xe60e9248f523f348a10b7483c67f92ed37912ad41c6a7eeb083dc029741612f8",
      "transactionType": "CALL",
      "contractName": "LinkToken",
      "contractAddress": "0x326C977E6efc84E512bB9C30f76E30c160eD06FB",
      "function": "transferAndCall(address,uint256,bytes)",
      "arguments": [
        "0x7a1BaC17Ccc5b313516C5E16fb24f7659aA5ebed",
        "3000000000000000000",
        "0x0000000000000000000000000000000000000000000000000000000000001b28"
      ],
      "transaction": {
        "type": "0x02",
        "from": "0x7b3594aa123cfdfe16fb2d9122d86e34e76b8749",
        "to": "0x326c977e6efc84e512bb9c30f76e30c160ed06fb",
        "gas": "0x1b456",
        "value": "0x0",
        "data": "0x4000aea00000000000000000000000007a1bac17ccc5b313516c5e16fb24f7659aa5ebed00000000000000000000000000000000000000000000000029a2241af62c0000000000000000000000000000000000000000000000000000000000000000006000000000000000000000000000000000000000000000000000000000000000200000000000000000000000000000000000000000000000000000000000001b28",
        "nonce": "0x63",
        "accessList": []
      },
      "additionalContracts": [],
      "isFixedGasLimit": false
    },
    {
      "hash": "0xe75551b850ced86dd81493e683426507c3078eecd85182a40a55e263261c65d4",
      "transactionType": "CREATE",
      "contractName": "CoinFlip",
      "contractAddress": "0x814B8B83e049143785b8cCA1944E84449719a80c",
      "function": null,
      "arguments": [
        "10000000000000000",
        "0x7a1BaC17Ccc5b313516C5E16fb24f7659aA5ebed",
        "0x4b09e658ed251bcafeebbc69400383d49f344ace09b9576fe248bb02c003fe9f",
        "6952",
        "500000"
      ],
      "transaction": {
        "type": "0x02",
        "from": "0x7b3594aa123cfdfe16fb2d9122d86e34e76b8749",
        "gas": "0xbed65",
        "value": "0x0",
        "data": "0x61014060405267016345785d8a000060a05234801561001d57600080fd5b50604051610ae4380380610ae483398101604081905261003c9161008b565b6001600160a01b039093166080819052600080546001600160a01b0319163317905560a09490945260c09390935260e0526001600160401b039091166101005263ffffffff166101205261010e565b600080600080600060a086880312156100a357600080fd5b855160208701519095506001600160a01b03811681146100c257600080fd5b6040870151606088015191955093506001600160401b03811681146100e657600080fd5b608087015190925063ffffffff8116811461010057600080fd5b809150509295509295909350565b60805160a05160c05160e05161010051610120516109726101726000396000610430015260006103fd015260006103ce0152600061045e01526000818161020001528181610381015261067f01526000818161022f015261027101526109726000f3fe6080604052600436106100705760003560e01c8063893d20e81161004e578063893d20e8146101ab578063cde4efa9146101d3578063d0e30db0146101e9578063e586a4f0146101f157600080fd5b80631fe543e3146100755780633ccfd60b1461009757806369d91319146100ac575b600080fd5b34801561008157600080fd5b506100956100903660046107dd565b610224565b005b3480156100a357600080fd5b506100956102b1565b3480156100b857600080fd5b506101586100c73660046108a7565b6040805160a08101825260008082526020820181905291810182905260608101829052608081019190915250600090815260016020818152604092839020835160a08101855281546001600160a01b038116825260ff600160a01b90910481161515938201939093529281015493830193909352600283015460608301526003909201549091161515608082015290565b6040516101a2919081516001600160a01b03168152602080830151151590820152604080830151908201526060808301519082015260809182015115159181019190915260a00190565b60405180910390f35b3480156101b757600080fd5b506000546040516001600160a01b0390911681526020016101a2565b6101db61037d565b6040519081526020016101a2565b61009561058d565b3480156101fd57600080fd5b507f00000000000000000000000000000000000000000000000000000000000000006101db565b336001600160a01b037f000000000000000000000000000000000000000000000000000000000000000016146102a35760405163073e64fd60e21b81523360048201526001600160a01b037f00000000000000000000000000000000000000000000000000000000000000001660248201526044015b60405180910390fd5b6102ad82826105db565b5050565b6000546001600160a01b031633146102dc576040516354697c3f60e11b815260040160405180910390fd5b600080546040516001600160a01b039091169047908381818185875af1925050503d8060008114610329576040519150601f19603f3d011682016040523d82523d6000602084013e61032e565b606091505b505090508061037a5760405162461bcd60e51b815260206004820152601860248201527710dbda5b919b1a5c17d7d51c985b9cd9995c91985a5b195960421b604482015260640161029a565b50565b60007f000000000000000000000000000000000000000000000000000000000000000034146103bf57604051631bc33ce760e01b815260040160405180910390fd5b6040516305d3b1d360e41b81527f0000000000000000000000000000000000000000000000000000000000000000600482015267ffffffffffffffff7f00000000000000000000000000000000000000000000000000000000000000001660248201526003604482015263ffffffff7f0000000000000000000000000000000000000000000000000000000000000000166064820152600160848201527f00000000000000000000000000000000000000000000000000000000000000006001600160a01b031690635d3b1d309060a4016020604051808303816000875af11580156104af573d6000803e3d6000fd5b505050506040513d601f19601f820116820180604052508101906104d391906108c0565b6040805160a0810182523381526000602080830182815283850186815260608501848152608086018581528886526001948590528786209651875494511515600160a01b026001600160a81b03199095166001600160a01b03919091161793909317865590519285019290925590516002840155516003909201805492151560ff1990931692909217909155905191925082917f9225d96d3d8d310d424a8461c88f20e8eecbddfbbe3cb73e74b4e71b254a3a549190a290565b6000546001600160a01b031633146105b8576040516354697c3f60e11b815260040160405180910390fd5b346000036105d957604051638577b91d60e01b815260040160405180910390fd5b565b6000828152600160205260408120805460ff60a01b1916600160a01b17815582519091839161060c5761060c6108d9565b602002602001015181600201819055506000600283600081518110610633576106336108d9565b602002602001015161064591906108ef565b90508060000361077c5760038201805460ff19166001908117909155600085815260209190915260408120546001600160a01b03166106a57f00000000000000000000000000000000000000000000000000000000000000006002610911565b604051600081818185875af1925050503d80600081146106e1576040519150601f19603f3d011682016040523d82523d6000602084013e6106e6565b606091505b50509050806107325760405162461bcd60e51b815260206004820152601860248201527710dbda5b919b1a5c17d7d51c985b9cd9995c91985a5b195960421b604482015260640161029a565b8254604051600181526001600160a01b039091169086907f4c007d2e4d2a8270fae2a1021acaad8478446132a6d1875ca767614e77f094e49060200160405180910390a3506107c1565b8154604051600081526001600160a01b039091169085907f4c007d2e4d2a8270fae2a1021acaad8478446132a6d1875ca767614e77f094e49060200160405180910390a35b50505050565b634e487b7160e01b600052604160045260246000fd5b600080604083850312156107f057600080fd5b8235915060208084013567ffffffffffffffff8082111561081057600080fd5b818601915086601f83011261082457600080fd5b813581811115610836576108366107c7565b8060051b604051601f19603f8301168101818110858211171561085b5761085b6107c7565b60405291825284820192508381018501918983111561087957600080fd5b938501935b828510156108975784358452938501939285019261087e565b8096505050505050509250929050565b6000602082840312156108b957600080fd5b5035919050565b6000602082840312156108d257600080fd5b5051919050565b634e487b7160e01b600052603260045260246000fd5b60008261090c57634e487b7160e01b600052601260045260246000fd5b500690565b808202811582820484141761093657634e487b7160e01b600052601160045260246000fd5b9291505056fea264697066735822122050eac95f676267c7010dde9f3e28721776487faf2a5de90d222f6c66e5d4056264736f6c63430008170033000000000000000000000000000000000000000000000000002386f26fc100000000000000000000000000007a1bac17ccc5b313516c5e16fb24f7659aa5ebed4b09e658ed251bcafeebbc69400383d49f344ace09b9576fe248bb02c003fe9f0000000000000000000000000000000000000000000000000000000000001b28000000000000000000000000000000000000000000000000000000000007a120",
        "nonce": "0x64",
        "accessList": []
      },
      "additionalContracts": [],
      "isFixedGasLimit": false
    },
    {
      "hash": "0x37bd7e0d89af0a751d0d93bc593bc72cdb842887bfbf34b47607a04053a9e47c",
      "transactionType": "CALL",
      "contractName": "VRFCoordinatorV2",
      "contractAddress": "0x7a1BaC17Ccc5b313516C5E16fb24f7659aA5ebed",
      "function": "addConsumer(uint64,address)",
      "arguments": [
        "6952",
        "0x814B8B83e049143785b8cCA1944E84449719a80c"
      ],
      "transaction": {
        "type": "0x02",
        "from": "0x7b3594aa123cfdfe16fb2d9122d86e34e76b8749",
        "to": "0x7a1bac17ccc5b313516c5e16fb24f7659aa5ebed",
        "gas": "0x21eb0",
        "value": "0x0",
        "data": "0x7341c10c0000000000000000000000000000000000000000000000000000000000001b28000000000000000000000000814b8b83e049143785b8cca1944e84449719a80c",
        "nonce": "0x65",
        "accessList": []
      },
      "additionalContracts": [],
      "isFixedGasLimit": false
    }
  ],
  "receipts": [
    {
      "transactionHash": "0x1d1b6b18a45477ea1835e2112bdcac21649e961368bfe350901b3a7829eb1a08",
      "transactionIndex": "0x0",
      "blockHash": "0xd984597616ba9ca412686a896dc249da7d3a9165de900370fd34edccc7819a88",
      "blockNumber": "0x2ac41b3",
      "from": "0x7B3594AA123CFdFE16fb2d9122D86E34E76B8749",
      "to": null,
      "cumulativeGasUsed": "0x137031",
      "gasUsed": "0x137031",
      "contractAddress": "0x277A15B785Ef4480b4bA1D2BE18BBC1e21e7eae7",
      "logs": [
        {
          "address": "0x0000000000000000000000000000000000001010",
          "topics": [
            "0x4dfe1bbbcf077ddc3e01291eea2d5c70c2b422b415d95645b9adcfd678cb1d63",
            "0x0000000000000000000000000000000000000000000000000000000000001010",
            "0x0000000000000000000000007b3594aa123cfdfe16fb2d9122d86e34e76b8749",
            "0x000000000000000000000000f903ba9e006193c1527bfbe65fe2123704ea3f99"
          ],
          "data": "0x0000000000000000000000000000000000000000000000000087c64ba213ec000000000000000000000000000000000000000000000000051af38fceeb8bb7e20000000000000000000000000000000000000000000012abee578c3cabaa2e1a0000000000000000000000000000000000000000000000051a6bc9834977cbe20000000000000000000000000000000000000000000012abeedf52884dbe1a1a",
          "blockHash": "0xd984597616ba9ca412686a896dc249da7d3a9165de900370fd34edccc7819a88",
          "blockNumber": "0x2ac41b3",
          "transactionHash": "0x1d1b6b18a45477ea1835e2112bdcac21649e961368bfe350901b3a7829eb1a08",
          "transactionIndex": "0x0",
          "logIndex": "0x0",
          "removed": false
        }
      ],
      "status": "0x1",
      "logsBloom": "0x00000000000000000000000000000000000000000000000000000010000000000000000000000020000000000000000000008000000000000000000000000000000000000000000000000000000000800000000000000000000100000000000000000000001000000000000000000000000000080000000080000000000000000000000000000000000000000000000000000000000000000000000000000000200000000000000000000000000000000000000000000000000000000000004000000000000000000001000000000000000000000000000000100000001000000000000000000000000200000000000000000000000000000000000000100000",
      "type": "0x2",
      "effectiveGasPrice": "0x6fc23ac10"
    },
    {
      "transactionHash": "0xe1c22093ea174c331a93a0c61484f12a673439893c230df80f62e33370a3afcd",
      "transactionIndex": "0x1",
      "blockHash": "0xd984597616ba9ca412686a896dc249da7d3a9165de900370fd34edccc7819a88",
      "blockNumber": "0x2ac41b3",
      "from": "0x7B3594AA123CFdFE16fb2d9122D86E34E76B8749",
      "to": "0x7a1BaC17Ccc5b313516C5E16fb24f7659aA5ebed",
      "cumulativeGasUsed": "0x1459bb",
      "gasUsed": "0xe98a",
      "contractAddress": null,
      "logs": [
        {
          "address": "0x7a1BaC17Ccc5b313516C5E16fb24f7659aA5ebed",
          "topics": [
            "0x464722b4166576d3dcbba877b999bc35cf911f4eaf434b7eba68fa113951d0bf",
            "0x0000000000000000000000000000000000000000000000000000000000001b28"
          ],
          "data": "0x0000000000000000000000007b3594aa123cfdfe16fb2d9122d86e34e76b8749",
          "blockHash": "0xd984597616ba9ca412686a896dc249da7d3a9165de900370fd34edccc7819a88",
          "blockNumber": "0x2ac41b3",
          "transactionHash": "0xe1c22093ea174c331a93a0c61484f12a673439893c230df80f62e33370a3afcd",
          "transactionIndex": "0x1",
          "logIndex": "0x1",
          "removed": false
        },
        {
          "address": "0x0000000000000000000000000000000000001010",
          "topics": [
            "0x4dfe1bbbcf077ddc3e01291eea2d5c70c2b422b415d95645b9adcfd678cb1d63",
            "0x0000000000000000000000000000000000000000000000000000000000001010",
            "0x0000000000000000000000007b3594aa123cfdfe16fb2d9122d86e34e76b8749",
            "0x000000000000000000000000f903ba9e006193c1527bfbe65fe2123704ea3f99"
          ],
          "data": "0x00000000000000000000000000000000000000000000000000065f4062c6b8000000000000000000000000000000000000000000000000051a6bc9834840c8d20000000000000000000000000000000000000000000012abeedf52884dbe1a1a0000000000000000000000000000000000000000000000051a656a42e57a10d20000000000000000000000000000000000000000000012abeee5b1c8b084d21a",
          "blockHash": "0xd984597616ba9ca412686a896dc249da7d3a9165de900370fd34edccc7819a88",
          "blockNumber": "0x2ac41b3",
          "transactionHash": "0xe1c22093ea174c331a93a0c61484f12a673439893c230df80f62e33370a3afcd",
          "transactionIndex": "0x1",
          "logIndex": "0x2",
          "removed": false
        }
      ],
      "status": "0x1",
      "logsBloom": "0x00000000000000000000010000000000040000000000040000000110000000000100000000000020000000000000000020008000000000000000000000000000000000000000000000000000000000800000000000000000000100000000000000000080001000000000000000000000000000080000000080000000000000000000000000000000000000020000000000000000000000000000000000000000200000000000000000000000000000000000000000000000000000000000004000000000000000200001000000000000000000000000000000100000001000000000000000000000000200000000000000000000000000000000000000100000",
      "type": "0x2",
      "effectiveGasPrice": "0x6fc23ac10"
    },
    {
      "transactionHash": "0xe60e9248f523f348a10b7483c67f92ed37912ad41c6a7eeb083dc029741612f8",
      "transactionIndex": "0x2",
      "blockHash": "0xd984597616ba9ca412686a896dc249da7d3a9165de900370fd34edccc7819a88",
      "blockNumber": "0x2ac41b3",
      "from": "0x7B3594AA123CFdFE16fb2d9122D86E34E76B8749",
      "to": "0x326C977E6efc84E512bB9C30f76E30c160eD06FB",
      "cumulativeGasUsed": "0x158415",
      "gasUsed": "0x12a5a",
      "contractAddress": null,
      "logs": [
        {
          "address": "0x326C977E6efc84E512bB9C30f76E30c160eD06FB",
          "topics": [
            "0xddf252ad1be2c89b69c2b068fc378daa952ba7f163c4a11628f55a4df523b3ef",
            "0x0000000000000000000000007b3594aa123cfdfe16fb2d9122d86e34e76b8749",
            "0x0000000000000000000000007a1bac17ccc5b313516c5e16fb24f7659aa5ebed"
          ],
          "data": "0x00000000000000000000000000000000000000000000000029a2241af62c0000",
          "blockHash": "0xd984597616ba9ca412686a896dc249da7d3a9165de900370fd34edccc7819a88",
          "blockNumber": "0x2ac41b3",
          "transactionHash": "0xe60e9248f523f348a10b7483c67f92ed37912ad41c6a7eeb083dc029741612f8",
          "transactionIndex": "0x2",
          "logIndex": "0x3",
          "removed": false
        },
        {
          "address": "0x326C977E6efc84E512bB9C30f76E30c160eD06FB",
          "topics": [
            "0xe19260aff97b920c7df27010903aeb9c8d2be5d310a2c67824cf3f15396e4c16",
            "0x0000000000000000000000007b3594aa123cfdfe16fb2d9122d86e34e76b8749",
            "0x0000000000000000000000007a1bac17ccc5b313516c5e16fb24f7659aa5ebed"
          ],
          "data": "0x00000000000000000000000000000000000000000000000029a2241af62c0000000000000000000000000000000000000000000000000000000000000000004000000000000000000000000000000000000000000000000000000000000000200000000000000000000000000000000000000000000000000000000000001b28",
          "blockHash": "0xd984597616ba9ca412686a896dc249da7d3a9165de900370fd34edccc7819a88",
          "blockNumber": "0x2ac41b3",
          "transactionHash": "0xe60e9248f523f348a10b7483c67f92ed37912ad41c6a7eeb083dc029741612f8",
          "transactionIndex": "0x2",
          "logIndex": "0x4",
          "removed": false
        },
        {
          "address": "0x7a1BaC17Ccc5b313516C5E16fb24f7659aA5ebed",
          "topics": [
            "0xd39ec07f4e209f627a4c427971473820dc129761ba28de8906bd56f57101d4f8",
            "0x0000000000000000000000000000000000000000000000000000000000001b28"
          ],
          "data": "0x000000000000000000000000000000000000000000000000000000000000000000000000000000000000000000000000000000000000000029a2241af62c0000",
          "blockHash": "0xd984597616ba9ca412686a896dc249da7d3a9165de900370fd34edccc7819a88",
          "blockNumber": "0x2ac41b3",
          "transactionHash": "0xe60e9248f523f348a10b7483c67f92ed37912ad41c6a7eeb083dc029741612f8",
          "transactionIndex": "0x2",
          "logIndex": "0x5",
          "removed": false
        },
        {
          "address": "0x0000000000000000000000000000000000001010",
          "topics": [
            "0x4dfe1bbbcf077ddc3e01291eea2d5c70c2b422b415d95645b9adcfd678cb1d63",
            "0x0000000000000000000000000000000000000000000000000000000000001010",
            "0x0000000000000000000000007b3594aa123cfdfe16fb2d9122d86e34e76b8749",
            "0x000000000000000000000000f903ba9e006193c1527bfbe65fe2123704ea3f99"
          ],
          "data": "0x000000000000000000000000000000000000000000000000000823f62ac278000000000000000000000000000000000000000000000000051a656a42e56b78320000000000000000000000000000000000000000000012abeee5b1c8b084d21a0000000000000000000000000000000000000000000000051a5d464cbaa900320000000000000000000000000000000000000000000012abeeedd5bedb474a1a",
          "blockHash": "0xd984597616ba9ca412686a896dc249da7d3a9165de900370fd34edccc7819a88",
          "blockNumber": "0x2ac41b3",
          "transactionHash": "0xe60e9248f523f348a10b7483c67f92ed37912ad41c6a7eeb083dc029741612f8",
          "transactionIndex": "0x2",
          "logIndex": "0x6",
          "removed": false
        }
      ],
      "status": "0x1",
      "logsBloom": "0x00000000000000040000000000000000040000000000040200000110020000000000000000000020000000000000000020008000000000000000000000000000000000000000000000000008000000800000000000000000000120000000000000000080001000000000000000000000000000080000000080000010000000000000004000000000000000020000000010000020000000000000000400000000200000000000000000000000000000000000000000000000000400000000004000000002000000008001000000000000000000000000000000100000001000000800000000000000001200000000000000000000000000000000000000100000",
      "type": "0x2",
      "effectiveGasPrice": "0x6fc23ac10"
    },
    {
      "transactionHash": "0xe75551b850ced86dd81493e683426507c3078eecd85182a40a55e263261c65d4",
      "transactionIndex": "0x3",
      "blockHash": "0xd984597616ba9ca412686a896dc249da7d3a9165de900370fd34edccc7819a88",
      "blockNumber": "0x2ac41b3",
      "from": "0x7B3594AA123CFdFE16fb2d9122D86E34E76B8749",
      "to": null,
      "cumulativeGasUsed": "0x1eb193",
      "gasUsed": "0x92d7e",
      "contractAddress": "0x814B8B83e049143785b8cCA1944E84449719a80c",
      "logs": [
        {
          "address": "0x0000000000000000000000000000000000001010",
          "topics": [
            "0x4dfe1bbbcf077ddc3e01291eea2d5c70c2b422b415d95645b9adcfd678cb1d63",
            "0x0000000000000000000000000000000000000000000000000000000000001010",
            "0x0000000000000000000000007b3594aa123cfdfe16fb2d9122d86e34e76b8749",
            "0x000000000000000000000000f903ba9e006193c1527bfbe65fe2123704ea3f99"
          ],
          "data": "0x00000000000000000000000000000000000000000000000000401b036acaa8000000000000000000000000000000000000000000000000051a5d464cba965a920000000000000000000000000000000000000000000012abeeedd5bedb474a1a0000000000000000000000000000000000000000000000051a1d2b494fcbb2920000000000000000000000000000000000000000000012abef2df0c24611f21a",
          "blockHash": "0xd984597616ba9ca412686a896dc249da7d3a9165de900370fd34edccc7819a88",
          "blockNumber": "0x2ac41b3",
          "transactionHash": "0xe75551b850ced86dd81493e683426507c3078eecd85182a40a55e263261c65d4",
          "transactionIndex": "0x3",
          "logIndex": "0x7",
          "removed": false
        }
      ],
      "status": "0x1",
      "logsBloom": "0x00000000000000000000000000000000000000000000000000000010000000000000000000000020000000000000000000008000000000000000000000000000000000000000000000000000000000800000000000000000000100000000000000000000001000000000000000000000000000080000000080000000000000000000000000000000000000000000000000000000000000000000000000000000200000000000000000000000000000000000000000000000000000000000004000000000000000000001000000000000000000000000000000100000001000000000000000000000000200000000000000000000000000000000000000100000",
      "type": "0x2",
      "effectiveGasPrice": "0x6fc23ac10"
    },
    {
      "transactionHash": "0x37bd7e0d89af0a751d0d93bc593bc72cdb842887bfbf34b47607a04053a9e47c",
      "transactionIndex": "0x0",
      "blockHash": "0xbca747ba0390b840573af5da4071dc117f139f5a1a6ced8c8cff25ed383b356e",
      "blockNumber": "0x2ac41b4",
      "from": "0x7B3594AA123CFdFE16fb2d9122D86E34E76B8749",
      "to": "0x7a1BaC17Ccc5b313516C5E16fb24f7659aA5ebed",
      "cumulativeGasUsed": "0x17312",
      "gasUsed": "0x17312",
      "contractAddress": null,
      "logs": [
        {
          "address": "0x7a1BaC17Ccc5b313516C5E16fb24f7659aA5ebed",
          "topics": [
            "0x43dc749a04ac8fb825cbd514f7c0e13f13bc6f2ee66043b76629d51776cff8e0",
            "0x0000000000000000000000000000000000000000000000000000000000001b28"
          ],
          "data": "0x000000000000000000000000814b8b83e049143785b8cca1944e84449719a80c",
          "blockHash": "0xbca747ba0390b840573af5da4071dc117f139f5a1a6ced8c8cff25ed383b356e",
          "blockNumber": "0x2ac41b4",
          "transactionHash": "0x37bd7e0d89af0a751d0d93bc593bc72cdb842887bfbf34b47607a04053a9e47c",
          "transactionIndex": "0x0",
          "logIndex": "0x0",
          "removed": false
        },
        {
          "address": "0x0000000000000000000000000000000000001010",
          "topics": [
            "0x4dfe1bbbcf077ddc3e01291eea2d5c70c2b422b415d95645b9adcfd678cb1d63",
            "0x0000000000000000000000000000000000000000000000000000000000001010",
            "0x0000000000000000000000007b3594aa123cfdfe16fb2d9122d86e34e76b8749",
            "0x000000000000000000000000f903ba9e006193c1527bfbe65fe2123704ea3f99"
          ],
          "data": "0x000000000000000000000000000000000000000000000000000a1fe56cc618000000000000000000000000000000000000000000000000051a1d2b494f38dab20000000000000000000000000000000000000000000012abef4120e625b852210000000000000000000000000000000000000000000000051a130b63e272c2b20000000000000000000000000000000000000000000012abef4b40cb927e6a21",
          "blockHash": "0xbca747ba0390b840573af5da4071dc117f139f5a1a6ced8c8cff25ed383b356e",
          "blockNumber": "0x2ac41b4",
          "transactionHash": "0x37bd7e0d89af0a751d0d93bc593bc72cdb842887bfbf34b47607a04053a9e47c",
          "transactionIndex": "0x0",
          "logIndex": "0x1",
          "removed": false
        }
      ],
      "status": "0x1",
      "logsBloom": "0x00000000000000000000000000000000040000000000040000000110000000000000000000000020000000000000000020008000000000000000000000000000000000000000000000000000000000800000000000000000000100000000000000000080001080000000000000000000000000080000000080000000000000000000000000000000000000020000000000000000000000000000000000000000200000000000000000000080000000000000000000000000000000000000004000000000000000000001000000000000000000000000000000120000001000000000000000000000000200000000000000000000000000000000000000100000",
      "type": "0x2",
      "effectiveGasPrice": "0x6fc23ac10"
    }
  ],
  "libraries": [
    "lib/foundry-devops/src/DevOpsTools.sol:DevOpsTools:0x277a15b785ef4480b4ba1d2be18bbc1e21e7eae7"
  ],
  "pending": [],
  "returns": {
    "0": {
      "internal_type": "contract CoinFlip",
      "value": "0x814B8B83e049143785b8cCA1944E84449719a80c"
    },
    "1": {
      "internal_type": "contract HelperConfig",
      "value": "0xC7f2Cf4845C6db0e1a1e91ED41Bcd0FcC1b0E141"
    }
  },
  "timestamp": 1705430520,
  "chain": 80001,
  "multi": false,
  "commit": "1f4137e"
}